{
  "transactions": [
    {
      "hash": "0x6b8f6dc676e8b688d94ebd2320ae66f79673c467a955addbac52f41f5b426c9e",
      "transactionType": "CALL",
      "contractName": null,
      "contractAddress": "0x8103B0A8A00be2DDC778e6e7eaa21791Cd364625",
      "function": "createSubscription()",
      "arguments": [],
      "transaction": {
        "type": "0x02",
        "from": "0x7fd1314c2411c05fc6b87d871c4671549615ca04",
        "to": "0x8103b0a8a00be2ddc778e6e7eaa21791cd364625",
        "gas": "0x1558c",
        "value": "0x0",
        "data": "0xa21a23e4",
        "nonce": "0x2",
        "accessList": []
      },
      "additionalContracts": [],
      "isFixedGasLimit": false
    },
    {
      "hash": "0xe7049fb3fde50d7449f33e24310486c53d1d65c2e4128feed1eaf07c68c0d97b",
      "transactionType": "CALL",
      "contractName": "LinkToken",
      "contractAddress": "0x779877A7B0D9E8603169DdbD7836e478b4624789",
      "function": "transferAndCall(address,uint256,bytes)",
      "arguments": [
        "0x8103B0A8A00be2DDC778e6e7eaa21791Cd364625",
        "3000000000000000000",
        "0x00000000000000000000000000000000000000000000000000000000000028e8"
      ],
      "transaction": {
        "type": "0x02",
        "from": "0x7fd1314c2411c05fc6b87d871c4671549615ca04",
        "to": "0x779877a7b0d9e8603169ddbd7836e478b4624789",
        "gas": "0x1b43f",
        "value": "0x0",
        "data": "0x4000aea00000000000000000000000008103b0a8a00be2ddc778e6e7eaa21791cd36462500000000000000000000000000000000000000000000000029a2241af62c00000000000000000000000000000000000000000000000000000000000000000060000000000000000000000000000000000000000000000000000000000000002000000000000000000000000000000000000000000000000000000000000028e8",
        "nonce": "0x3",
        "accessList": []
      },
      "additionalContracts": [],
      "isFixedGasLimit": false
    },
    {
      "hash": "0xf346c1c368d2df9f0c9638dc53a07f059d0e0a3599cf13a66582f09c8b43e877",
      "transactionType": "CREATE",
      "contractName": "Raffle",
      "contractAddress": "0x3600bB563Cb16aA9A779ce5CA6BfdBD080c13C6A",
      "function": null,
      "arguments": [
        "10472",
        "0x474e34a077df58807dbe9c96d3c009b23b3c6d0cce433e59bbf5b34f823bc56c",
        "30",
        "10000000000000000",
        "500000",
        "0x8103B0A8A00be2DDC778e6e7eaa21791Cd364625"
      ],
      "transaction": {
        "type": "0x02",
        "from": "0x7fd1314c2411c05fc6b87d871c4671549615ca04",
        "gas": "0xe606d",
        "value": "0x0",
        "data": "0x61016060405234801561001157600080fd5b50604051610d1f380380610d1f83398101604081905261003091610081565b6001600160a01b0316608081905260a05260e093909352610120919091526001600160401b039290921660c052610140919091526003805460ff191690554260005563ffffffff166101005261010c565b60008060008060008060c0878903121561009a57600080fd5b86516001600160401b03811681146100b157600080fd5b80965050602087015194506040870151935060608701519250608087015163ffffffff811681146100e157600080fd5b60a08801519092506001600160a01b03811681146100fe57600080fd5b809150509295509295509295565b60805160a05160c05160e051610100516101205161014051610ba561017a6000396000818160d6015261030701526000818161020a01526105d5015260006104d001526000610472015260006104980152600061050c01526000818161028301526102c50152610ba56000f3fe6080604052600436106100c25760003560e01c806353a2c19a1161007f57806391ad27b41161005957806391ad27b4146101fb578063c1c244e81461022e578063e55ae4e814610243578063fd6673f51461026357600080fd5b806353a2c19a146101a55780635f1b0fd8146101b95780636e04ff0d146101cd57600080fd5b806309bc33a7146100c7578063115cbaf5146101095780631fe543e3146101295780632cfcc5391461014b5780634585e33b14610153578063473f1ddc14610173575b600080fd5b3480156100d357600080fd5b507f00000000000000000000000000000000000000000000000000000000000000005b6040519081526020015b60405180910390f35b34801561011557600080fd5b5060035460ff16604051610100919061085e565b34801561013557600080fd5b506101496101443660046108cd565b610278565b005b610149610305565b34801561015f57600080fd5b5061014961016e36600461097f565b6103eb565b34801561017f57600080fd5b506001546001600160a01b03165b6040516001600160a01b039091168152602001610100565b3480156101b157600080fd5b5060016100f6565b3480156101c557600080fd5b5060036100f6565b3480156101d957600080fd5b506101ed6101e83660046109f1565b6105ad565b604051610100929190610a86565b34801561020757600080fd5b507f00000000000000000000000000000000000000000000000000000000000000006100f6565b34801561023a57600080fd5b506000546100f6565b34801561024f57600080fd5b5061018d61025e366004610ade565b610634565b34801561026f57600080fd5b506002546100f6565b336001600160a01b037f000000000000000000000000000000000000000000000000000000000000000016146102f75760405163073e64fd60e21b81523360048201526001600160a01b037f00000000000000000000000000000000000000000000000000000000000000001660248201526044015b60405180910390fd5b6103018282610664565b5050565b7f00000000000000000000000000000000000000000000000000000000000000003410156103465760405163181c600560e11b815260040160405180910390fd5b600060035460ff16600181111561035f5761035f610848565b1461037d5760405163349289c560e21b815260040160405180910390fd5b6002805460018101825560009182527f405787fa12a823e0f2b7631cc41b3ba8828b3321ca811111fa75cd3aa3bb5ace0180546001600160a01b0319163390811790915560405190917f0805e1d667bddb8a95f0f09880cf94f403fb596ce79928d9f29b74203ba284d491a2565b6000610405604051806020016040528060008152506105ad565b509050806104545760025460035447919060ff16600181111561042a5761042a610848565b604051632c2193d560e11b81526004810193909352602483019190915260448201526064016102ee565b6003805460ff1916600190811782556040516305d3b1d360e41b81527f000000000000000000000000000000000000000000000000000000000000000060048201527f000000000000000000000000000000000000000000000000000000000000000067ffffffffffffffff16602482015260448101929092527f000000000000000000000000000000000000000000000000000000000000000063ffffffff16606483015260848201526000906001600160a01b037f00000000000000000000000000000000000000000000000000000000000000001690635d3b1d309060a4016020604051808303816000875af1158015610555573d6000803e3d6000fd5b505050506040513d601f19601f820116820180604052508101906105799190610af7565b60405190915081907fcd6e45c8998311cab7e9d4385596cac867e20a0587194b954fa3a731c93ce78b90600090a250505050565b600354600090606090829060ff1660018111156105cc576105cc610848565b600014905060007f0000000000000000000000000000000000000000000000000000000000000000600054426106029190610b10565b6002549110915015154715158280156106185750835b80156106215750805b801561062a5750815b9795505050505050565b60006002828154811061064957610649610b37565b6000918252602090912001546001600160a01b031692915050565b60006002805490508260008151811061067f5761067f610b37565b60200260200101516106919190610b4d565b90506000600282815481106106a8576106a8610b37565b6000918252602082200154600180546001600160a01b0319166001600160a01b03909216918217905591506040519080825280602002602001820160405280156106fc578160200160208202803683370190505b508051610711916002916020909101906107ce565b506003805460ff191690554260009081556040516001600160a01b038316917f5b690ec4a06fe979403046eaeea5b3ce38524683c3001f662c8b5a829632f7df91a26000816001600160a01b03164760405160006040518083038185875af1925050503d80600081146107a0576040519150601f19603f3d011682016040523d82523d6000602084013e6107a5565b606091505b50509050806107c75760405163a1d04b3960e01b815260040160405180910390fd5b5050505050565b828054828255906000526020600020908101928215610823579160200282015b8281111561082357825182546001600160a01b0319166001600160a01b039091161782556020909201916001909101906107ee565b5061082f929150610833565b5090565b5b8082111561082f5760008155600101610834565b634e487b7160e01b600052602160045260246000fd5b602081016002831061088057634e487b7160e01b600052602160045260246000fd5b91905290565b634e487b7160e01b600052604160045260246000fd5b604051601f8201601f1916810167ffffffffffffffff811182821017156108c5576108c5610886565b604052919050565b600080604083850312156108e057600080fd5b8235915060208084013567ffffffffffffffff8082111561090057600080fd5b818601915086601f83011261091457600080fd5b81358181111561092657610926610886565b8060051b915061093784830161089c565b818152918301840191848101908984111561095157600080fd5b938501935b8385101561096f57843582529385019390850190610956565b8096505050505050509250929050565b6000806020838503121561099257600080fd5b823567ffffffffffffffff808211156109aa57600080fd5b818501915085601f8301126109be57600080fd5b8135818111156109cd57600080fd5b8660208285010111156109df57600080fd5b60209290920196919550909350505050565b60006020808385031215610a0457600080fd5b823567ffffffffffffffff80821115610a1c57600080fd5b818501915085601f830112610a3057600080fd5b813581811115610a4257610a42610886565b610a54601f8201601f1916850161089c565b91508082528684828501011115610a6a57600080fd5b8084840185840137600090820190930192909252509392505050565b821515815260006020604081840152835180604085015260005b81811015610abc57858101830151858201606001528201610aa0565b506000606082860101526060601f19601f830116850101925050509392505050565b600060208284031215610af057600080fd5b5035919050565b600060208284031215610b0957600080fd5b5051919050565b81810381811115610b3157634e487b7160e01b600052601160045260246000fd5b92915050565b634e487b7160e01b600052603260045260246000fd5b600082610b6a57634e487b7160e01b600052601260045260246000fd5b50069056fea26469706673582212208111b3f7d5c180e75cc3cb4086b812b86f7d4b8d60723780bd24bbb7a938046a64736f6c6343000811003300000000000000000000000000000000000000000000000000000000000028e8474e34a077df58807dbe9c96d3c009b23b3c6d0cce433e59bbf5b34f823bc56c000000000000000000000000000000000000000000000000000000000000001e000000000000000000000000000000000000000000000000002386f26fc10000000000000000000000000000000000000000000000000000000000000007a1200000000000000000000000008103b0a8a00be2ddc778e6e7eaa21791cd364625",
        "nonce": "0x4",
        "accessList": []
      },
      "additionalContracts": [],
      "isFixedGasLimit": false
    },
    {
      "hash": "0x099f463da579f4d1e1ac56501257675e229f4021085d51941d53c69d1cd36fe3",
      "transactionType": "CALL",
      "contractName": null,
      "contractAddress": "0x8103B0A8A00be2DDC778e6e7eaa21791Cd364625",
      "function": "addConsumer(uint64,address)",
      "arguments": [
        "10472",
        "0x3600bB563Cb16aA9A779ce5CA6BfdBD080c13C6A"
      ],
      "transaction": {
        "type": "0x02",
        "from": "0x7fd1314c2411c05fc6b87d871c4671549615ca04",
        "to": "0x8103b0a8a00be2ddc778e6e7eaa21791cd364625",
        "gas": "0x20079",
        "value": "0x0",
        "data": "0x7341c10c00000000000000000000000000000000000000000000000000000000000028e80000000000000000000000003600bb563cb16aa9a779ce5ca6bfdbd080c13c6a",
        "nonce": "0x5",
        "accessList": []
      },
      "additionalContracts": [],
      "isFixedGasLimit": false
    }
  ],
  "receipts": [
    {
      "transactionHash": "0x6b8f6dc676e8b688d94ebd2320ae66f79673c467a955addbac52f41f5b426c9e",
      "transactionIndex": "0x1e",
      "blockHash": "0xfae416cbca8464fed1845cce6fee3e74ebce03b599b15f6cfb5a3a42aeaa25a9",
      "blockNumber": "0x54c971",
      "from": "0x7FD1314c2411c05FC6B87D871C4671549615Ca04",
      "to": "0x8103B0A8A00be2DDC778e6e7eaa21791Cd364625",
      "cumulativeGasUsed": "0xec923",
      "gasUsed": "0xe98a",
      "contractAddress": null,
      "logs": [
        {
          "address": "0x8103B0A8A00be2DDC778e6e7eaa21791Cd364625",
          "topics": [
            "0x464722b4166576d3dcbba877b999bc35cf911f4eaf434b7eba68fa113951d0bf",
            "0x00000000000000000000000000000000000000000000000000000000000028e8"
          ],
          "data": "0x0000000000000000000000007fd1314c2411c05fc6b87d871c4671549615ca04",
          "blockHash": "0xfae416cbca8464fed1845cce6fee3e74ebce03b599b15f6cfb5a3a42aeaa25a9",
          "blockNumber": "0x54c971",
          "transactionHash": "0x6b8f6dc676e8b688d94ebd2320ae66f79673c467a955addbac52f41f5b426c9e",
          "transactionIndex": "0x1e",
          "logIndex": "0x3",
          "removed": false
        }
      ],
      "status": "0x1",
      "logsBloom": "0x0000000000000000000009000000000000000000000000000000000000000000010000000000000000000000000000000000000000000000000000000000000000000000000000000000000000000000000000000000040000000000000000000000000000000000000000000000000000000000000000000000000000000000000000000c000020000000000000000000000000000000000000000000000000000000000000000000000000000000000000000000000000000000000000000000000000000000200000000000000000000000000000000000000000000000100000000000000000000000000000000000000000000000000000000000000000",
      "type": "0x2",
      "effectiveGasPrice": "0x161acda6e"
    },
    {
      "transactionHash": "0xe7049fb3fde50d7449f33e24310486c53d1d65c2e4128feed1eaf07c68c0d97b",
      "transactionIndex": "0x1f",
      "blockHash": "0xfae416cbca8464fed1845cce6fee3e74ebce03b599b15f6cfb5a3a42aeaa25a9",
      "blockNumber": "0x54c971",
      "from": "0x7FD1314c2411c05FC6B87D871C4671549615Ca04",
      "to": "0x779877A7B0D9E8603169DdbD7836e478b4624789",
      "cumulativeGasUsed": "0xff36d",
      "gasUsed": "0x12a4a",
      "contractAddress": null,
      "logs": [
        {
          "address": "0x779877A7B0D9E8603169DdbD7836e478b4624789",
          "topics": [
            "0xddf252ad1be2c89b69c2b068fc378daa952ba7f163c4a11628f55a4df523b3ef",
            "0x0000000000000000000000007fd1314c2411c05fc6b87d871c4671549615ca04",
            "0x0000000000000000000000008103b0a8a00be2ddc778e6e7eaa21791cd364625"
          ],
          "data": "0x00000000000000000000000000000000000000000000000029a2241af62c0000",
          "blockHash": "0xfae416cbca8464fed1845cce6fee3e74ebce03b599b15f6cfb5a3a42aeaa25a9",
          "blockNumber": "0x54c971",
          "transactionHash": "0xe7049fb3fde50d7449f33e24310486c53d1d65c2e4128feed1eaf07c68c0d97b",
          "transactionIndex": "0x1f",
          "logIndex": "0x4",
          "removed": false
        },
        {
          "address": "0x779877A7B0D9E8603169DdbD7836e478b4624789",
          "topics": [
            "0xe19260aff97b920c7df27010903aeb9c8d2be5d310a2c67824cf3f15396e4c16",
            "0x0000000000000000000000007fd1314c2411c05fc6b87d871c4671549615ca04",
            "0x0000000000000000000000008103b0a8a00be2ddc778e6e7eaa21791cd364625"
          ],
          "data": "0x00000000000000000000000000000000000000000000000029a2241af62c00000000000000000000000000000000000000000000000000000000000000000040000000000000000000000000000000000000000000000000000000000000002000000000000000000000000000000000000000000000000000000000000028e8",
          "blockHash": "0xfae416cbca8464fed1845cce6fee3e74ebce03b599b15f6cfb5a3a42aeaa25a9",
          "blockNumber": "0x54c971",
          "transactionHash": "0xe7049fb3fde50d7449f33e24310486c53d1d65c2e4128feed1eaf07c68c0d97b",
          "transactionIndex": "0x1f",
          "logIndex": "0x5",
          "removed": false
        },
        {
          "address": "0x8103B0A8A00be2DDC778e6e7eaa21791Cd364625",
          "topics": [
            "0xd39ec07f4e209f627a4c427971473820dc129761ba28de8906bd56f57101d4f8",
            "0x00000000000000000000000000000000000000000000000000000000000028e8"
          ],
          "data": "0x000000000000000000000000000000000000000000000000000000000000000000000000000000000000000000000000000000000000000029a2241af62c0000",
          "blockHash": "0xfae416cbca8464fed1845cce6fee3e74ebce03b599b15f6cfb5a3a42aeaa25a9",
          "blockNumber": "0x54c971",
          "transactionHash": "0xe7049fb3fde50d7449f33e24310486c53d1d65c2e4128feed1eaf07c68c0d97b",
          "transactionIndex": "0x1f",
          "logIndex": "0x6",
          "removed": false
        }
      ],
      "status": "0x1",
      "logsBloom": "0x0000001400000000000008000000080000000000000000020000000002000000000000000000800000000000000000000000000000000000000000000000000000000000000000000000000800000000000000000000040000002000000000000000000000000000000000000000000000000000400000000000001000000000000000000c000020000000000000800010000020000000000000000000000000000000000000000000000000000000000000000000000000000400000000000000000002000000000000000000000000000000000000000100000800000000100000000000000000000000000000000000000000000000000000000000000000",
      "type": "0x2",
      "effectiveGasPrice": "0x161acda6e"
    },
    {
      "transactionHash": "0xf346c1c368d2df9f0c9638dc53a07f059d0e0a3599cf13a66582f09c8b43e877",
      "transactionIndex": "0x20",
      "blockHash": "0xfae416cbca8464fed1845cce6fee3e74ebce03b599b15f6cfb5a3a42aeaa25a9",
      "blockNumber": "0x54c971",
      "from": "0x7FD1314c2411c05FC6B87D871C4671549615Ca04",
      "to": null,
      "cumulativeGasUsed": "0x1b0364",
      "gasUsed": "0xb0ff7",
      "contractAddress": "0x3600bB563Cb16aA9A779ce5CA6BfdBD080c13C6A",
      "logs": [],
      "status": "0x1",
      "logsBloom": "0x00000000000000000000000000000000000000000000000000000000000000000000000000000000000000000000000000000000000000000000000000000000000000000000000000000000000000000000000000000000000000000000000000000000000000000000000000000000000000000000000000000000000000000000000000000000000000000000000000000000000000000000000000000000000000000000000000000000000000000000000000000000000000000000000000000000000000000000000000000000000000000000000000000000000000000000000000000000000000000000000000000000000000000000000000000000",
      "type": "0x2",
      "effectiveGasPrice": "0x161acda6e"
    },
    {
      "transactionHash": "0x099f463da579f4d1e1ac56501257675e229f4021085d51941d53c69d1cd36fe3",
      "transactionIndex": "0x21",
      "blockHash": "0xfae416cbca8464fed1845cce6fee3e74ebce03b599b15f6cfb5a3a42aeaa25a9",
      "blockNumber": "0x54c971",
      "from": "0x7FD1314c2411c05FC6B87D871C4671549615Ca04",
      "to": "0x8103B0A8A00be2DDC778e6e7eaa21791Cd364625",
      "cumulativeGasUsed": "0x1c766a",
      "gasUsed": "0x17306",
      "contractAddress": null,
      "logs": [
        {
          "address": "0x8103B0A8A00be2DDC778e6e7eaa21791Cd364625",
          "topics": [
            "0x43dc749a04ac8fb825cbd514f7c0e13f13bc6f2ee66043b76629d51776cff8e0",
            "0x00000000000000000000000000000000000000000000000000000000000028e8"
          ],
          "data": "0x0000000000000000000000003600bb563cb16aa9a779ce5ca6bfdbd080c13c6a",
          "blockHash": "0xfae416cbca8464fed1845cce6fee3e74ebce03b599b15f6cfb5a3a42aeaa25a9",
          "blockNumber": "0x54c971",
          "transactionHash": "0x099f463da579f4d1e1ac56501257675e229f4021085d51941d53c69d1cd36fe3",
          "transactionIndex": "0x21",
          "logIndex": "0x7",
          "removed": false
        }
      ],
      "status": "0x1",
      "logsBloom": "0x0000000000000000000008000000000000000000000000000000000000000000000000000000000000000000000000000000000000000000000000000000000000000000000000000000000000000000000000000000040000000000000000000000000000008000000000000000000000000000000000000000000000000000000000000c000020000000000000000000000000000000000000000000000000000000000000000000000080000000000000000000000000000000000000000000000000000000000000000000000000000000000000000000020000000000100000000000000000000000000000000000000000000000000000000000000000",
      "type": "0x2",
      "effectiveGasPrice": "0x161acda6e"
    }
  ],
  "libraries": [],
  "pending": [],
  "returns": {
    "0": {
      "internal_type": "contract Raffle",
      "value": "0x3600bB563Cb16aA9A779ce5CA6BfdBD080c13C6A"
    },
    "1": {
      "internal_type": "contract HelperConfig",
      "value": "0xC7f2Cf4845C6db0e1a1e91ED41Bcd0FcC1b0E141"
    }
  },
  "timestamp": 1711353512,
  "chain": 11155111,
  "commit": "50da438"
}